{
  "contractName": "KOSCoinflip",
  "abi": [
    {
      "anonymous": false,
      "inputs": [
        {
          "indexed": false,
          "internalType": "address",
          "name": "_transferTo",
          "type": "address"
        },
        {
          "indexed": false,
          "internalType": "address",
          "name": "_transferFrom",
          "type": "address"
        },
        {
          "indexed": false,
          "internalType": "uint256",
          "name": "amount",
          "type": "uint256"
        }
      ],
      "name": "TransferFund",
      "type": "event"
    },
    {
      "constant": true,
      "inputs": [],
      "name": "getPlayer1Address",
      "outputs": [
        {
          "internalType": "address",
          "name": "",
          "type": "address"
        }
      ],
      "payable": false,
      "stateMutability": "view",
      "type": "function"
    },
    {
      "constant": true,
      "inputs": [],
      "name": "getPlayer2Address",
      "outputs": [
        {
          "internalType": "address",
          "name": "",
          "type": "address"
        }
      ],
      "payable": false,
      "stateMutability": "view",
      "type": "function"
    },
    {
      "constant": true,
      "inputs": [],
      "name": "getPlayer1Balance",
      "outputs": [
        {
          "internalType": "uint256",
          "name": "",
          "type": "uint256"
        }
      ],
      "payable": false,
      "stateMutability": "view",
      "type": "function"
    },
    {
      "constant": true,
      "inputs": [],
      "name": "getPlayer2Balance",
      "outputs": [
        {
          "internalType": "uint256",
          "name": "",
          "type": "uint256"
        }
      ],
      "payable": false,
      "stateMutability": "view",
      "type": "function"
    },
    {
      "constant": false,
      "inputs": [
        {
          "internalType": "address",
          "name": "_player1",
          "type": "address"
        },
        {
          "internalType": "address",
          "name": "_player2",
          "type": "address"
        }
      ],
      "name": "setPlayer",
      "outputs": [],
      "payable": false,
      "stateMutability": "nonpayable",
      "type": "function"
    },
    {
      "constant": true,
      "inputs": [
        {
          "internalType": "uint16",
          "name": "_address1res",
          "type": "uint16"
        },
        {
          "internalType": "uint16",
          "name": "_address2res",
          "type": "uint16"
        }
      ],
      "name": "bet",
      "outputs": [
        {
          "internalType": "uint16",
          "name": "",
          "type": "uint16"
        },
        {
          "internalType": "address",
          "name": "",
          "type": "address"
        }
      ],
      "payable": false,
      "stateMutability": "view",
      "type": "function"
    },
    {
      "constant": false,
      "inputs": [
        {
          "internalType": "address payable",
          "name": "_transferTo",
          "type": "address"
        }
      ],
      "name": "transfer",
      "outputs": [
        {
          "internalType": "bool",
          "name": "",
          "type": "bool"
        }
      ],
      "payable": true,
      "stateMutability": "payable",
      "type": "function"
    }
  ],
  "bytecode": "0x608060405234801561001057600080fd5b506105cc806100206000396000f3fe6080604052600436106100705760003560e01c80638499e5501161004e5780638499e55014610199578063a9f346e314610235578063e9a6421f14610260578063f5660f05146102b757610070565b80631a69523014610075578063225d76f0146100d15780634302696a14610128575b600080fd5b6100b76004803603602081101561008b57600080fd5b81019080803573ffffffffffffffffffffffffffffffffffffffff1690602001909291905050506102e2565b604051808215151515815260200191505060405180910390f35b3480156100dd57600080fd5b506100e66103d3565b604051808273ffffffffffffffffffffffffffffffffffffffff1673ffffffffffffffffffffffffffffffffffffffff16815260200191505060405180910390f35b34801561013457600080fd5b506101976004803603604081101561014b57600080fd5b81019080803573ffffffffffffffffffffffffffffffffffffffff169060200190929190803573ffffffffffffffffffffffffffffffffffffffff1690602001909291905050506103fd565b005b3480156101a557600080fd5b506101e4600480360360408110156101bc57600080fd5b81019080803561ffff169060200190929190803561ffff169060200190929190505050610482565b604051808361ffff1661ffff1681526020018273ffffffffffffffffffffffffffffffffffffffff1673ffffffffffffffffffffffffffffffffffffffff1681526020019250505060405180910390f35b34801561024157600080fd5b5061024a610512565b6040518082815260200191505060405180910390f35b34801561026c57600080fd5b5061027561051c565b604051808273ffffffffffffffffffffffffffffffffffffffff1673ffffffffffffffffffffffffffffffffffffffff16815260200191505060405180910390f35b3480156102c357600080fd5b506102cc610545565b6040518082815260200191505060405180910390f35b60008173ffffffffffffffffffffffffffffffffffffffff166108fc349081150290604051600060405180830381858888f1935050505015801561032a573d6000803e3d6000fd5b507f41f7a8a1a70f43ecf6769f65a9933ba3370058d8e3422511a890553ba75ff3e8823334604051808473ffffffffffffffffffffffffffffffffffffffff1673ffffffffffffffffffffffffffffffffffffffff1681526020018373ffffffffffffffffffffffffffffffffffffffff1673ffffffffffffffffffffffffffffffffffffffff168152602001828152602001935050505060405180910390a160019050919050565b6000600160009054906101000a900473ffffffffffffffffffffffffffffffffffffffff16905090565b816000806101000a81548173ffffffffffffffffffffffffffffffffffffffff021916908373ffffffffffffffffffffffffffffffffffffffff16021790555080600160006101000a81548173ffffffffffffffffffffffffffffffffffffffff021916908373ffffffffffffffffffffffffffffffffffffffff1602179055505050565b600080600061048f61054f565b905060008161ffff168661ffff1614156104cc576000809054906101000a900473ffffffffffffffffffffffffffffffffffffffff169050610503565b8161ffff168561ffff16141561050257600160009054906101000a900473ffffffffffffffffffffffffffffffffffffffff1690505b5b81819350935050509250929050565b6000600254905090565b60008060009054906101000a900473ffffffffffffffffffffffffffffffffffffffff16905090565b6000600354905090565b600080444260405160200180838152602001828152602001925050506040516020818303038152906040528051906020012060001c90506002818161059057fe5b069150509056fea265627a7a72315820ab219e2328da292107aeae00dac48139f47273767c5b215ab8ca811d46a7d18064736f6c63430005100032",
  "source": "pragma solidity >=0.4.22 <0.9.0;\n\ncontract KOSCoinflip {\n    address player1;\n    address player2;\n    uint256 player1Balance;\n    uint256 player2Balance;\n\n    event TransferFund(\n        address _transferTo,\n        address _transferFrom,\n        uint256 amount\n    );\n\n    function getPlayer1Address() public view returns (address) {\n        return player1;\n    }\n\n    function getPlayer2Address() public view returns (address) {\n        return player2;\n    }\n\n    function getPlayer1Balance() public view returns (uint256) {\n        return player1Balance;\n    }\n\n    function getPlayer2Balance() public view returns (uint256) {\n        return player2Balance;\n    }\n\n    function random() private view returns (uint16) {\n        uint256 randomHash =\n            uint256(\n                keccak256(abi.encodePacked(block.difficulty, block.timestamp))\n            );\n        return uint16(randomHash % 2);\n    }\n\n    function setPlayer(address _player1, address _player2) public {\n        player1 = _player1;\n        player2 = _player2;\n    }\n\n    function bet(uint16 _address1res, uint16 _address2res)\n        public\n        view\n        returns (uint16, address)\n    {\n        uint16 answer = random();\n        address winner;\n        if (_address1res == answer) {\n            winner = player1;\n        } else if (_address2res == answer) {\n            winner = player2;\n        }\n        return (answer, winner);\n    }\n\n    function transfer(address payable _transferTo)\n        public\n        payable\n        returns (bool)\n    {\n        // transferTo = _transferTo;\n        _transferTo.transfer(msg.value);\n\n        emit TransferFund(_transferTo, msg.sender, msg.value);\n\n        return true;\n    }\n}\n",
  "sourcePath": "/Users/surasith/test-coinflip-game/contracts/KOSCoinflip.sol",
  "compiler": {
    "name": "solc",
    "version": "0.5.16+commit.9c3226ce.Emscripten.clang"
  },
  "schemaVersion": "3.4.1",
  "updatedAt": "2021-06-20T10:06:38.231Z",
  "networkType": "ethereum",
  "devdoc": {
    "methods": {}
  },
  "userdoc": {
    "methods": {}
  }
}