{
  "contractName": "KOSCoinflip",
  "abi": [
    {
      "inputs": [
        {
          "internalType": "address",
          "name": "_player1",
          "type": "address"
        },
        {
          "internalType": "address",
          "name": "_player2",
          "type": "address"
        }
      ],
      "payable": false,
      "stateMutability": "nonpayable",
      "type": "constructor"
    },
    {
      "constant": true,
      "inputs": [],
      "name": "getPlayer1Address",
      "outputs": [
        {
          "internalType": "address",
          "name": "",
          "type": "address"
        }
      ],
      "payable": false,
      "stateMutability": "view",
      "type": "function"
    },
    {
      "constant": true,
      "inputs": [],
      "name": "getPlayer2Address",
      "outputs": [
        {
          "internalType": "address",
          "name": "",
          "type": "address"
        }
      ],
      "payable": false,
      "stateMutability": "view",
      "type": "function"
    },
    {
      "constant": true,
      "inputs": [],
      "name": "getPlayer1Balance",
      "outputs": [
        {
          "internalType": "uint256",
          "name": "",
          "type": "uint256"
        }
      ],
      "payable": false,
      "stateMutability": "view",
      "type": "function"
    },
    {
      "constant": true,
      "inputs": [],
      "name": "getPlayer2Balance",
      "outputs": [
        {
          "internalType": "uint256",
          "name": "",
          "type": "uint256"
        }
      ],
      "payable": false,
      "stateMutability": "view",
      "type": "function"
    },
    {
      "constant": true,
      "inputs": [],
      "name": "random",
      "outputs": [
        {
          "internalType": "uint16",
          "name": "",
          "type": "uint16"
        }
      ],
      "payable": false,
      "stateMutability": "view",
      "type": "function"
    },
    {
      "constant": true,
      "inputs": [
        {
          "internalType": "uint16",
          "name": "_address1res",
          "type": "uint16"
        },
        {
          "internalType": "uint16",
          "name": "_address2res",
          "type": "uint16"
        }
      ],
      "name": "tossCoin",
      "outputs": [
        {
          "internalType": "address",
          "name": "",
          "type": "address"
        }
      ],
      "payable": false,
      "stateMutability": "view",
      "type": "function"
    }
  ],
  "bytecode": "0x608060405234801561001057600080fd5b506040516104673803806104678339818101604052604081101561003357600080fd5b810190808051906020019092919080519060200190929190505050816000806101000a81548173ffffffffffffffffffffffffffffffffffffffff021916908373ffffffffffffffffffffffffffffffffffffffff1602179055508173ffffffffffffffffffffffffffffffffffffffff163160028190555080600160006101000a81548173ffffffffffffffffffffffffffffffffffffffff021916908373ffffffffffffffffffffffffffffffffffffffff1602179055508073ffffffffffffffffffffffffffffffffffffffff1631600381905550505061034b8061011c6000396000f3fe608060405234801561001057600080fd5b50600436106100625760003560e01c8063225d76f0146100675780635ec01e4d146100b1578063a9f346e3146100d7578063e9a6421f146100f5578063f5660f051461013f578063f9d282b71461015d575b600080fd5b61006f6101dd565b604051808273ffffffffffffffffffffffffffffffffffffffff1673ffffffffffffffffffffffffffffffffffffffff16815260200191505060405180910390f35b6100b9610207565b604051808261ffff1661ffff16815260200191505060405180910390f35b6100df61024f565b6040518082815260200191505060405180910390f35b6100fd610259565b604051808273ffffffffffffffffffffffffffffffffffffffff1673ffffffffffffffffffffffffffffffffffffffff16815260200191505060405180910390f35b610147610282565b6040518082815260200191505060405180910390f35b61019b6004803603604081101561017357600080fd5b81019080803561ffff169060200190929190803561ffff16906020019092919050505061028c565b604051808273ffffffffffffffffffffffffffffffffffffffff1673ffffffffffffffffffffffffffffffffffffffff16815260200191505060405180910390f35b6000600160009054906101000a900473ffffffffffffffffffffffffffffffffffffffff16905090565b600080444260405160200180838152602001828152602001925050506040516020818303038152906040528051906020012060001c90506002818161024857fe5b0691505090565b6000600254905090565b60008060009054906101000a900473ffffffffffffffffffffffffffffffffffffffff16905090565b6000600354905090565b600080610297610207565b905060008161ffff168561ffff1614156102d4576000809054906101000a900473ffffffffffffffffffffffffffffffffffffffff16905061030b565b8161ffff168461ffff16141561030a57600160009054906101000a900473ffffffffffffffffffffffffffffffffffffffff1690505b5b80925050509291505056fea265627a7a723158204c4feb90866a5e0f937e21f9be1827545b7e5334e4f28c5924b1ce68e904640964736f6c63430005100032",
  "source": "pragma solidity >=0.4.22 <0.9.0;\n\ncontract KOSCoinflip {\n    address player1;\n    address player2;\n    uint256 player1Balance;\n    uint256 player2Balance;\n\n    constructor(address _player1, address _player2) public {\n        player1 = _player1;\n        player1Balance = _player1.balance;\n        player2 = _player2;\n        player2Balance = _player2.balance;\n    }\n\n    function getPlayer1Address() public view returns (address) {\n        return player1;\n    }\n\n    function getPlayer2Address() public view returns (address) {\n        return player2;\n    }\n\n    function getPlayer1Balance() public view returns (uint256) {\n        return player1Balance;\n    }\n\n    function getPlayer2Balance() public view returns (uint256) {\n        return player2Balance;\n    }\n\n    function random() public view returns (uint16) {\n        uint256 randomHash =\n            uint256(\n                keccak256(abi.encodePacked(block.difficulty, block.timestamp))\n            );\n        return uint16(randomHash % 2);\n    }\n\n    function tossCoin(uint16 _address1res, uint16 _address2res)\n        public\n        view\n        returns (address)\n    {\n        uint16 answer = random();\n        address winner;\n        if (_address1res == answer) {\n            winner = player1;\n        } else if (_address2res == answer) {\n            winner = player2;\n        }\n        return winner;\n    }\n}\n\ncontract AB {\n    uint256 num1;\n    address owner;\n    address receiver;\n\n    constructor(address _receiver) public {\n        owner = msg.sender;\n        receiver = _receiver;\n    }\n\n    function sendBalance(address payable receiver) public payable {\n        uint256 amount = msg.value;\n        receiver.transfer(amount);\n    }\n\n    function getOwnerBalance() public view returns (uint256) {\n        return msg.sender.balance;\n    }\n\n    function getReceiverBalance() public view returns (uint256) {\n        return receiver.balance;\n    }\n}\n",
  "sourcePath": "/Users/surasith/test-coinflip-game/contracts/KOSCoinflip.sol",
  "compiler": {
    "name": "solc",
    "version": "0.5.16+commit.9c3226ce.Emscripten.clang"
  },
  "schemaVersion": "3.0.23",
  "updatedAt": "2021-06-19T21:59:45.022Z",
  "devdoc": {
    "methods": {}
  },
  "userdoc": {
    "methods": {}
  }
}